{
  "transactions": [
    {
      "hash": "0x4b0b82af806bf7f3911dc57042665c628c4c3bf42094fd7ea8a84386ff67ad0e",
      "transactionType": "CALL",
      "contractName": null,
      "contractAddress": "0x52a52d224573fcbdd6e8353ce1d0591563fc3bb4",
      "function": "setAllowed(address,bool)",
      "arguments": [
        "0x420ACF637D662b80cca8bEfb327AA24039E7e0Fa",
        "true"
      ],
      "transaction": {
        "from": "0x420acf637d662b80cca8befb327aa24039e7e0fa",
        "to": "0x52a52d224573fcbdd6e8353ce1d0591563fc3bb4",
        "gas": "0x119f9",
        "value": "0x0",
        "input": "0x4697f05d000000000000000000000000420acf637d662b80cca8befb327aa24039e7e0fa0000000000000000000000000000000000000000000000000000000000000001",
        "nonce": "0x140",
        "chainId": "0x1"
      },
      "additionalContracts": [],
      "isFixedGasLimit": false
    },
    {
      "hash": "0x87a1956559d638ca9ce0f9b103285c4f66003ce54b29f3c908b68f369c16b648",
      "transactionType": "CALL",
      "contractName": null,
      "contractAddress": "0x7d3536382805f01b3c8c88a9a2037466c1fed424",
      "function": "setAllowed(address,bool)",
      "arguments": [
        "0x420ACF637D662b80cca8bEfb327AA24039E7e0Fa",
        "true"
      ],
      "transaction": {
        "from": "0x420acf637d662b80cca8befb327aa24039e7e0fa",
        "to": "0x7d3536382805f01b3c8c88a9a2037466c1fed424",
        "gas": "0x119f9",
        "value": "0x0",
        "input": "0x4697f05d000000000000000000000000420acf637d662b80cca8befb327aa24039e7e0fa0000000000000000000000000000000000000000000000000000000000000001",
        "nonce": "0x141",
        "chainId": "0x1"
      },
      "additionalContracts": [],
      "isFixedGasLimit": false
    },
    {
      "hash": "0x4126be510dd77eacc722935560165c542bebb09c207d0e43b162d36be547bc89",
      "transactionType": "CALL",
      "contractName": null,
      "contractAddress": "0x3a36da4424906752c97532619757e232f4970a0f",
      "function": "setAllowed(address,bool)",
      "arguments": [
        "0x420ACF637D662b80cca8bEfb327AA24039E7e0Fa",
        "true"
      ],
      "transaction": {
        "from": "0x420acf637d662b80cca8befb327aa24039e7e0fa",
        "to": "0x3a36da4424906752c97532619757e232f4970a0f",
        "gas": "0x119f9",
        "value": "0x0",
        "input": "0x4697f05d000000000000000000000000420acf637d662b80cca8befb327aa24039e7e0fa0000000000000000000000000000000000000000000000000000000000000001",
        "nonce": "0x142",
        "chainId": "0x1"
      },
      "additionalContracts": [],
      "isFixedGasLimit": false
    },
    {
      "hash": "0xd1833ea4dba027656de72f3f17391d44c4c59b99ef5e91c19449815c91b01da4",
      "transactionType": "CALL",
      "contractName": null,
      "contractAddress": "0xcba881a129a8fe951c5909bdece34184b06ecafb",
      "function": "setAllowed(address,bool)",
      "arguments": [
        "0x420ACF637D662b80cca8bEfb327AA24039E7e0Fa",
        "true"
      ],
      "transaction": {
        "from": "0x420acf637d662b80cca8befb327aa24039e7e0fa",
        "to": "0xcba881a129a8fe951c5909bdece34184b06ecafb",
        "gas": "0x119f9",
        "value": "0x0",
        "input": "0x4697f05d000000000000000000000000420acf637d662b80cca8befb327aa24039e7e0fa0000000000000000000000000000000000000000000000000000000000000001",
        "nonce": "0x143",
        "chainId": "0x1"
      },
      "additionalContracts": [],
      "isFixedGasLimit": false
    },
    {
      "hash": "0x84fadb39f092bc86c4f592d80518b729b4b4a0368e468df6a916f6d4a3cc977d",
      "transactionType": "CALL",
      "contractName": null,
      "contractAddress": "0xa0b86991c6218b36c1d19d4a2e9eb0ce3606eb48",
      "function": "approve(address,uint256)",
      "arguments": [
        "0x52A52d224573fCBDD6e8353cE1D0591563Fc3Bb4",
        "21439333"
      ],
      "transaction": {
        "from": "0x420acf637d662b80cca8befb327aa24039e7e0fa",
        "to": "0xa0b86991c6218b36c1d19d4a2e9eb0ce3606eb48",
        "gas": "0x13d76",
        "value": "0x0",
        "input": "0x095ea7b300000000000000000000000052a52d224573fcbdd6e8353ce1d0591563fc3bb40000000000000000000000000000000000000000000000000000000001472365",
        "nonce": "0x144",
        "chainId": "0x1"
      },
      "additionalContracts": [],
      "isFixedGasLimit": false
    },
    {
      "hash": "0x871ac76dff1c12e43709c8dd880e0cb6bb5734fbb22dd6a0e404d639369683ed",
      "transactionType": "CALL",
      "contractName": null,
      "contractAddress": "0x52a52d224573fcbdd6e8353ce1d0591563fc3bb4",
      "function": "deposit(uint256,address)",
      "arguments": [
        "21439333",
        "0x420ACF637D662b80cca8bEfb327AA24039E7e0Fa"
      ],
      "transaction": {
        "from": "0x420acf637d662b80cca8befb327aa24039e7e0fa",
        "to": "0x52a52d224573fcbdd6e8353ce1d0591563fc3bb4",
        "gas": "0x10cc20",
        "value": "0x0",
        "input": "0x6e553f650000000000000000000000000000000000000000000000000000000001472365000000000000000000000000420acf637d662b80cca8befb327aa24039e7e0fa",
        "nonce": "0x145",
        "chainId": "0x1"
      },
      "additionalContracts": [],
      "isFixedGasLimit": false
    },
    {
      "hash": "0x9fecc775059247eaa413fa63278bb26b3f67ae681e0d17dfa21d70418ee618cd",
      "transactionType": "CALL",
      "contractName": null,
      "contractAddress": "0xcbb7c0000ab88b473b1f5afd9ef808440eed33bf",
      "function": "approve(address,uint256)",
      "arguments": [
        "0x7D3536382805f01b3c8c88a9a2037466C1FEd424",
        "61569"
      ],
      "transaction": {
        "from": "0x420acf637d662b80cca8befb327aa24039e7e0fa",
        "to": "0xcbb7c0000ab88b473b1f5afd9ef808440eed33bf",
        "gas": "0x14367",
        "value": "0x0",
        "input": "0x095ea7b30000000000000000000000007d3536382805f01b3c8c88a9a2037466c1fed424000000000000000000000000000000000000000000000000000000000000f081",
        "nonce": "0x146",
        "chainId": "0x1"
      },
      "additionalContracts": [],
      "isFixedGasLimit": false
    },
    {
      "hash": "0x52cdee68120e374d0fd08675ea0ae676ced8783e6e37bd4902992a2fbfff3273",
      "transactionType": "CALL",
      "contractName": null,
      "contractAddress": "0x7d3536382805f01b3c8c88a9a2037466c1fed424",
      "function": "deposit(uint256,address)",
      "arguments": [
        "61569",
        "0x420ACF637D662b80cca8bEfb327AA24039E7e0Fa"
      ],
      "transaction": {
        "from": "0x420acf637d662b80cca8befb327aa24039e7e0fa",
        "to": "0x7d3536382805f01b3c8c88a9a2037466c1fed424",
        "gas": "0x16891d",
        "value": "0x0",
        "input": "0x6e553f65000000000000000000000000000000000000000000000000000000000000f081000000000000000000000000420acf637d662b80cca8befb327aa24039e7e0fa",
        "nonce": "0x147",
        "chainId": "0x1"
      },
      "additionalContracts": [],
      "isFixedGasLimit": false
    },
    {
      "hash": "0x3f208afa5b68313c792d98230555380806762732758764cd3d1e227c1857d209",
      "transactionType": "CALL",
      "contractName": null,
      "contractAddress": "0xcbb7c0000ab88b473b1f5afd9ef808440eed33bf",
      "function": "approve(address,uint256)",
      "arguments": [
        "0x3a36da4424906752c97532619757E232f4970a0f",
        "61569"
      ],
      "transaction": {
        "from": "0x420acf637d662b80cca8befb327aa24039e7e0fa",
        "to": "0xcbb7c0000ab88b473b1f5afd9ef808440eed33bf",
        "gas": "0x14367",
        "value": "0x0",
        "input": "0x095ea7b30000000000000000000000003a36da4424906752c97532619757e232f4970a0f000000000000000000000000000000000000000000000000000000000000f081",
        "nonce": "0x148",
        "chainId": "0x1"
      },
      "additionalContracts": [],
      "isFixedGasLimit": false
    },
    {
      "hash": "0xf4d9ee1414f3e8d72e40de860558747634f023838e2c68c12fd65d4985e94636",
      "transactionType": "CALL",
      "contractName": null,
      "contractAddress": "0x3a36da4424906752c97532619757e232f4970a0f",
      "function": "deposit(uint256,address)",
      "arguments": [
        "61569",
        "0x420ACF637D662b80cca8bEfb327AA24039E7e0Fa"
      ],
      "transaction": {
        "from": "0x420acf637d662b80cca8befb327aa24039e7e0fa",
        "to": "0x3a36da4424906752c97532619757e232f4970a0f",
        "gas": "0x23e651",
        "value": "0x0",
        "input": "0x6e553f65000000000000000000000000000000000000000000000000000000000000f081000000000000000000000000420acf637d662b80cca8befb327aa24039e7e0fa",
        "nonce": "0x149",
        "chainId": "0x1"
      },
      "additionalContracts": [],
      "isFixedGasLimit": false
    },
    {
      "hash": "0xc3f152ff80f8d682735b3a20ed5cd8e20d79bafda187dfc0495b2a5148516783",
      "transactionType": "CALL",
      "contractName": null,
      "contractAddress": "0xcbb7c0000ab88b473b1f5afd9ef808440eed33bf",
      "function": "approve(address,uint256)",
      "arguments": [
        "0xCba881a129A8Fe951c5909bDeCe34184B06eCafB",
        "61570"
      ],
      "transaction": {
        "from": "0x420acf637d662b80cca8befb327aa24039e7e0fa",
        "to": "0xcbb7c0000ab88b473b1f5afd9ef808440eed33bf",
        "gas": "0x14367",
        "value": "0x0",
        "input": "0x095ea7b3000000000000000000000000cba881a129a8fe951c5909bdece34184b06ecafb000000000000000000000000000000000000000000000000000000000000f082",
        "nonce": "0x14a",
        "chainId": "0x1"
      },
      "additionalContracts": [],
      "isFixedGasLimit": false
    },
    {
      "hash": "0x93edc8c2aac75513b5f1a0a7fffabdebd784e2c9d2cbb66f3d6d923b96f09710",
      "transactionType": "CALL",
      "contractName": null,
      "contractAddress": "0xcba881a129a8fe951c5909bdece34184b06ecafb",
      "function": "deposit(uint256,address)",
      "arguments": [
        "61570",
        "0x420ACF637D662b80cca8bEfb327AA24039E7e0Fa"
      ],
      "transaction": {
        "from": "0x420acf637d662b80cca8befb327aa24039e7e0fa",
        "to": "0xcba881a129a8fe951c5909bdece34184b06ecafb",
        "gas": "0x1e09ca",
        "value": "0x0",
        "input": "0x6e553f65000000000000000000000000000000000000000000000000000000000000f082000000000000000000000000420acf637d662b80cca8befb327aa24039e7e0fa",
        "nonce": "0x14b",
        "chainId": "0x1"
      },
      "additionalContracts": [],
      "isFixedGasLimit": false
    }
  ],
  "receipts": [],
  "libraries": [],
  "pending": [
    "0x4b0b82af806bf7f3911dc57042665c628c4c3bf42094fd7ea8a84386ff67ad0e",
    "0x87a1956559d638ca9ce0f9b103285c4f66003ce54b29f3c908b68f369c16b648",
    "0x4126be510dd77eacc722935560165c542bebb09c207d0e43b162d36be547bc89",
    "0xd1833ea4dba027656de72f3f17391d44c4c59b99ef5e91c19449815c91b01da4",
    "0x84fadb39f092bc86c4f592d80518b729b4b4a0368e468df6a916f6d4a3cc977d",
    "0x871ac76dff1c12e43709c8dd880e0cb6bb5734fbb22dd6a0e404d639369683ed",
    "0x9fecc775059247eaa413fa63278bb26b3f67ae681e0d17dfa21d70418ee618cd",
    "0x52cdee68120e374d0fd08675ea0ae676ced8783e6e37bd4902992a2fbfff3273",
    "0x3f208afa5b68313c792d98230555380806762732758764cd3d1e227c1857d209",
    "0xf4d9ee1414f3e8d72e40de860558747634f023838e2c68c12fd65d4985e94636",
    "0xc3f152ff80f8d682735b3a20ed5cd8e20d79bafda187dfc0495b2a5148516783",
    "0x93edc8c2aac75513b5f1a0a7fffabdebd784e2c9d2cbb66f3d6d923b96f09710"
  ],
  "returns": {},
  "timestamp": 1775068413860,
  "chain": 1,
  "commit": "9405f13"
}